:020000040800F2
:10000000C818002089840008811B0008831B000891
:10001000871B00088B1B00088F1B000800000000D6
:10002000000000000000000000000000931B00081A
:10003000951B000800000000971B0008991B000892
:10004000A3840008A3840008A3840008A3840008F4
:10005000A3840008A3840008A3840008A3840008E4
:10006000A3840008A3840008A3840008A3840008D4
:10007000A3840008A38400088D5A0008E55E0008E8
:10008000A38400087F570008A3840008A384000805
:10009000A3840008A3840008A3840008A3840008A4
:1000A00013700008A3840008A3840008A384000838
:1000B000C36A0008A3840008A3840008A38400087E
:1000C000A3840008A3840008A3840008A384000874
:1000D000A3840008FD51000853560008415A000847
:1000E000A3840008A3840008A3840008A384000854
:1000F000A3840008A3840008A3840008A384000844
:10010000A3840008A3840008A3840008A384000833
:10011000995E0008A3840008A38400084314000823
:10012000A3840008A3840008A3840008A384000813
:10013000A3840008A3840008A3840008A384000803
:10014000A3840008A3840008A3840008A3840008F3
:10015000A3840008A384000845520008A384000873
:10016000A3840008A3840008A3840008A3840008D3
:10017000A3840008A3840008A3840008A3840008C3
:10018000A3840008A3840008DFF80CD00AF00AFB5F
:100190000048004709180008C81800209FEDFE0A13
:1001A000FE4880ED000A9FEDFC0AFD4880ED000A44
:1001B0009FEDF90AFB4880ED000A9FEDF70AFA4827
:1001C00080ED000A70479FEDF90AF44880ED000ABF
:1001D0009FEDF70AF24880ED000A9FEDF60AF1481C
:1001E00080ED000A9FEDF10AEF4880ED000A7047AC
:1001F0009FEDF10AF14880ED000A9FEDF10AF14808
:1002000080ED000A9FEDEE0AEF4880ED000A9FEDB9
:10021000EF0AEF4880ED000A704710B52DED028B14
:10022000FFF7E6FFFFF7CFFFEA4890ED050A10EE73
:10023000101A08460AF0A8F941EC180B9FEDE60BDE
:1002400053EC102B0AF0B4F91CD2FFF7A7FF07F00C
:10025000BCF90120E2490870E2480078401CE149FD
:1002600008700020E0490870E04908709FEDCA0A54
:10027000D84880ED040A9FEDC80A80ED050A0020E9
:10028000DB490870BDEC028B10BD9FEDDA0ACB484C
:1002900080ED000A9FEDD80ACA4880ED000A9FED64
:1002A000D70AC94880ED000A9FEDD50AC84880EDFD
:1002B000000A70479FEDD30AB84880ED000A9FED11
:1002C000D20AB74880ED000A9FEDCF0AB54880ED0D
:1002D000000A9FEDCC0AB44880ED000A704710B5C3
:1002E000FFF786FFFFF7E6FFBE480078022809D136
:1002F0009FEDC60AC64880ED000A9FEDC60AC648B3
:1003000080ED000AB7480078042809D19FEDC30AA0
:10031000BF4880ED000ABBEE000ABF4880ED000A2E
:10032000B0480078062809D19FEDBD0AB84880ED95
:10033000000ABBEE030AB84880ED000AA94800781D
:10034000082809D19FEDB70AB14880ED000A9FED5A
:10035000B60AB14880ED000A9E4890ED040AAC4808
:10036000D0ED000AB4EEE00AF1EE10FA57DD9FED91
:100370008A0AAE4880ED000A9FED870AAC4880EDFE
:10038000000A9FED850AAB4880ED000A9FED820AC6
:10039000A94880ED000A9FED800AA84880ED000A78
:1003A0009FED7D0AA64880ED000A9FED7B0AA548D7
:1003B00080ED000A9FED780AA34880ED000A9FEDCA
:1003C000760AA24880ED000A9FED730AA04880EDEE
:1003D000000A9FED710A9F4880ED000A9FED6E0AAA
:1003E0009D4880ED000AFFF7D9FE07F0EEF8FFF711
:1003F0004CFF06F062F901207949087079480078CD
:10040000401C784908700020774908709FED620A07
:10041000704880ED040A9FED600A80ED050A10BD6A
:1004200010B57048007868BB8C4890ED030ADFED8A
:100430008C0AB4EEE00AF1EE10FA1DD2894890ED74
:10044000030ADFED870AB4EEE00AF1EE10FA13D2E8
:10045000854890ED000A03F0A6F98048D0ED030A24
:10046000B0EE600A02F0F3F97E48D0ED030AB0EE78
:10047000600A02F009FA04E07B4890ED000A03F0FC
:1004800092F910BD57480078012826D19FED420A05
:100490006A4880ED000A9FED400A694880ED000A35
:1004A0009FED3D0A674880ED000A9FED3B0A6648D4
:1004B00080ED000A6D48D0ED030AB0EE600A02F04C
:1004C00065FB6B48D0ED030AB0EE600A02F07BFBDF
:1004D000654890ED000A03F0FBF9424800780528D2
:1004E00003D040480078092849D13F48007860BBD4
:1004F0004FF400715F4808F005FB38BB9FED260AFA
:100500004E4880ED000A9FED240A4D4880ED000A18
:100510009FED210A4B4880ED000A9FED1F0A4A48D3
:1005200080ED000A5148D0ED030AB0EE600A02F0F7
:100530002DFB4F48D0ED030AB0EE600A02F043FBFA
:10054000494890ED000A03F0C3F918E09FED120A44
:100550003A4880ED000A9FED100A394880ED000A04
:100560009FED0D0A374880ED000A9FED0B0A3648D3
:1005700080ED000A3C4890ED000A03F0A9F9194803
:100580000078032807D017480078072803D01548BB
:1005900000780A2870D170E0000000004C000020B4
:1005A000500000205400002058000020003093C567
:1005B000004092C5002099C5000028422C00002070
:1005C00000000A43300000203400002000002C42CC
:1005D0003800002044120020CDCCCCCCCC4C35C00F
:1005E00023000020180000201B0000201C00002019
:1005F0001A0000200000034300004042000048426F
:100600000000054300206EC500406CC533338B41AC
:10061000C4000020000024C2C80000203333B341CE
:1006200000008C416666B641666682C16C0000209F
:100630007000002074000020780000208C00002052
:100640009000002094000020980000209C000020D2
:10065000A0000020A4000020A8000020C801002065
:1006600000004843E8010020AC01002048020020BF
:1006700068020020000C02402FE0FE48007860BBBA
:100680004FF40061FC4808F03DFA38BB1FED3E0A0C
:10069000FA4880ED000A1FED400AF94880ED000A93
:1006A0001FED430AF74880ED000A1FED450AF648A2
:1006B00080ED000AF548D0ED030AB0EE600A02F0C2
:1006C00023FAF348D0ED030AB0EE600A02F03DFAD7
:1006D000F04890ED000A03F06CF918E01FED520AA3
:1006E000E64880ED000A1FED540AE54880ED000A57
:1006F0001FED570AE34880ED000A1FED590AE24852
:1007000080ED000AE34890ED000A03F052F9E24858
:100710000078022803D0E0480078062815D1D54893
:10072000007890B1DB4890ED000A03F056FADB4800
:10073000D0ED030AB0EE600A02F06CF9D848D0EDB3
:10074000030AB0EE600A02F0A2F9D3480078042848
:1007500003D0D1480078082815D1C648007890B158
:10076000CC4890ED000A03F038FACE48D0ED030AE9
:10077000B0EE600A02F0C6F8CB48D0ED030AB0EE46
:10078000600A02F09EF8C44800780B284ED1C64893
:1007900090ED030A5FED4E0AB4EEE00AF1EE10FAB6
:1007A00017D2C04890ED030A5FED530AB4EEE00A99
:1007B000F1EE10FA0DD2D0ED030AB0EE600A02F0AD
:1007C000E7F8B948D0ED030AB0EE600A02F0BBF8D2
:1007D0002CE01FED8F0AB54880ED000A1FED920A4C
:1007E000B34880ED000A1FED940AB24880ED000A7C
:1007F0001FED970AB04880ED000A1FED990A9F4847
:1008000080ED000A1FED9C0A9D4880ED000A1FED57
:100810009E0A9C4880ED000A1FEDA10A9A4880EDCF
:10082000000A9C4890ED000A03F001FA00BF28E698
:1008300010B52DED048BA1480078002847D0A048C2
:10084000006809F0A1FE41EC190B9FED9E0B53ECE3
:10085000102B09F00EFE41EC180B09F0C1FE98496F
:1008600008609A48006809F08FFE41EC190B9FED73
:10087000950B53EC102B09F0FCFD41EC180B09F023
:10088000AFFE924908609248006809F07DFE41EC95
:10089000190B9FED8C0B53EC102B09F0EAFD41EC8A
:1008A000180B09F09DFE8A4908608A48006809F023
:1008B0006BFE41EC190B9FED830B53EC102B09F0F1
:1008C000D8FD41EC180B09F08BFE82490860BDECA5
:1008D000048B10BD9FED800A794880ED000A9FEDE2
:1008E0007F0A7A4880ED000A9FED7D0A784880ED06
:1008F000000A9FED7C0A774880ED000A70479FED63
:100900007A0A6F4880ED000A9FED780A6F4880ED03
:10091000000A9FED770A6E4880ED000A9FED750A88
:100920006C4880ED000A70479FED730A644880EDC3
:10093000000A9FED720A654880ED000A9FED6B0A80
:10094000634880ED000A9FED680A624880ED000A66
:1009500070479FED6B0A5A4880ED000A9FED690AC7
:100960005A4880ED000A9FED680A594880ED000A58
:100970009FED640A574880ED000A704710B546485D
:10098000007828B961480078012801D1FFF7E1FF1C
:1009900041480078012807D03F480078052803D057
:1009A0003D480078092801D1FFF7BEFF3A4800789A
:1009B000032803D038480078072801D1FFF79FFFAC
:1009C000354800780A2801D1FFF784FF50480078A5
:1009D00008B1FFF72DFF304800780C2801D1FFF750
:1009E000DDFB10BD00B52C48007898B12A4800788E
:1009F00002280FD02848007804280BD02648007819
:100A0000062807D024480078082803D02248007818
:100A10000B2801D1FFF7ECFB1F480078012813D009
:100A20001D48007803280FD01B48007805280BD0FC
:100A300019480078072807D017480078092803D0FC
:100A4000154800780A2801D1FFF71FFC00BD10B53A
:100A500000202F490870194908704FF400412D48B3
:100A600008F050F82C4908700B48007801285CD039
:100A7000094853E01B000020000802408C000020C1
:100A800090000020940000209800002048020020E0
:100A900068020020AC01002018000020280200207D
:100AA00008020020E8010020C80100206C0000209E
:100AB0007000002074000020780000201F0000203B
:100AC0004C0000209A9999999999D93F500000209B
:100AD0005400002058000020004083C500E08345FA
:100AE00000C073C500C0734500A062C500A0624588
:100AF000330362C533036245CD2C6045CD2C60C500
:100B000000D89C4500609F4500089F4524000020B8
:100B10001D0000200010024026000020007805285B
:100B200003D0FE48007809280BD1FD48007840B971
:100B3000FC48007828B10120FB490870FB49087087
:100B400010BDF6480078032807D0F448007807283D
:100B500003D0F24800780A280BD1F148007840B958
:100B6000F048007828B10120EF490870EF4908707B
:100B7000E6E700BFE4E710B5E8480078012807D0B1
:100B8000E6480078052803D0E448007809280FD10A
:100B90004FF40061E64807F0B5FF48B98021E54809
:100BA00007F0CCFF4FF48071E24807F0C5FF20E06A
:100BB000DA480078032803D0D848007807280FD1F6
:100BC0004FF40071DC4807F09DFF48B98021D948F7
:100BD00007F0B2FF4FF48071D64807F0AFFF08E08E
:100BE0008021D44807F0AAFF4FF48071D14807F064
:100BF000A5FF10BD70B54FF40061CD4807F082FF2E
:100C000004464FF40071CC4807F07CFF0546C3480A
:100C10000078012803D0C148007805280CD1012CA8
:100C20000AD1012D08D1C548007828B9C4480470FC
:100C3000C2480570012070BDB848007809280DD160
:100C4000012C0BD1BE48007840B9BC48007828B9C7
:100C5000BB480470B94805700120ECE7AF48007844
:100C6000032803D0AD48007807280CD1012D0AD104
:100C7000012C08D1B248007828B9B1480470AF48B7
:100C800005700120D7E7A54800780A2810D1012D6A
:100C90000ED1AA48007858B9A948007840B9A848A8
:100CA0000470A6480570532001F0E2F80120C2E765
:100CB000A3480470A14805700020BCE710B5974810
:100CC0000078002877D19F480078002873D19E488B
:100CD00090ED030ADFED9D0AB4EEE00AF1EE10FAA2
:100CE00069D29B4890ED030ADFED980AB4EEE00A62
:100CF000F1EE10FA5FD20120884908709FED950A45
:100D0000954880ED000A9FED930A944880ED000A13
:100D10009FED900A924880ED000A9FED8E0A91485F
:100D200080ED000A9FED8B0A8F4880ED000A9FED51
:100D3000890A8E4880ED000A9FED860A8C4880ED76
:100D4000000A9FED840A8B4880ED000A9FED810A1E
:100D5000894880ED000A9FED7F0A884880ED000AEF
:100D60009FED7C0A864880ED000A9FED7A0A85484F
:100D700080ED000A9FED770A834880ED000A9FED21
:100D8000750A824880ED000A9FED720A804880ED66
:100D9000000A9FED700A7F4880ED000AFFF7FEF918
:100DA00006F013FCFFF71EFE05F087FC01207A49D0
:100DB000087010BDFFE759480078012864D1FFF79B
:100DC00019FF002860D00220544908709FED610A85
:100DD000614880ED000A9FED5F0A604880ED000ADF
:100DE0009FED5C0A5E4880ED000A9FED5A0A5D485F
:100DF00080ED000A9FED570A5B4880ED000A9FEDE9
:100E0000550A5A4880ED000A9FED520A584880ED75
:100E1000000A9FED500A574880ED000A9FED4D0AE9
:100E2000554880ED000A9FED4B0A544880ED000ABA
:100E30009FED480A524880ED000A9FED460A51484E
:100E400080ED000A9FED430A4F4880ED000A9FEDB8
:100E5000410A4E4880ED000A9FED3E0A4C4880ED65
:100E6000000A9FED3C0A4B4880ED000AFFF796F917
:100E700006F0ABFBFFF7B6FD05F01FFC012046496D
:100E800008702749087094E724480078032843D164
:100E9000FFF7B0FE00283FD00420204908709FEDE6
:100EA0002D0A2D4880ED000A9FED2A0A2B4880ED7F
:100EB000000A9FED280A2A4880ED000A9FED250AC6
:100EC000284880ED000A9FED230A274880ED000A9C
:100ED0009FED200A254880ED000A9FED1E0A244858
:100EE00080ED000A9FED1B0A224880ED000A9FED6D
:100EF000190A214880ED000A9FED160A1F4880ED6F
:100F0000000A9FED140A1E4880ED000A9FED110AA9
:100F10001C4880ED000A41E062E00000180000205B
:100F20001B000020260000201D0000201F000020C4
:100F30000008024000100240000C0240290000207E
:100F40002800002024000020480200200000A143C7
:100F500068020020000000006C00002070000020EB
:100F600074000020780000207C0000208000002019
:100F700084000020880000208C00002090000020C9
:100F800094000020980000209C000020A000002079
:100F9000A4000020A8000020230000201FED130A59
:100FA000FE4880ED000A1FED150AFD4880ED000A9D
:100FB0001FED180AFB4880ED000A1FED1A0AFA48D7
:100FC00080ED000AFFF7EAF806F0FFFAFFF70AFDE6
:100FD00005F073FB0120F5490870F5490870E8E653
:100FE000F4480078052864D1FFF704FE002860D09B
:100FF0000620F04908701FED290AEF4880ED000A2D
:101000001FED2C0AED4880ED000A1FED2E0AEC487A
:1010100080ED000A1FED310AEA4880ED000A1FED5D
:10102000330AE94880ED000A1FED360AE74880EDF3
:10103000000A1FED380AE64880ED000A1FED3B0A62
:10104000E44880ED000A1FED3D0AE34880ED000A08
:101050001FED400AE14880ED000A1FED420AE0481A
:1010600080ED000A1FED450ADE4880ED000A1FED05
:10107000470ACA4880ED000A1FED4A0AC84880EDB9
:10108000000A1FED4C0AC74880ED000A1FED4F0A09
:10109000C54880ED000AFFF781F806F096FAFFF7E1
:1010A000A1FC05F00AFB0120C0490870C049087086
:1010B0007FE6C0480078072864D1FFF79BFD002831
:1010C00060D00820BB4908701FED5E0ABA4880ED69
:1010D000000A1FED600AB94880ED000A1FED630A9F
:1010E000B74880ED000A1FED650AB64880ED000A9A
:1010F0001FED680AB44880ED000A1FED6A0AB34884
:1011000080ED000A1FED6D0AB14880ED000A1FED69
:101110006F0AB04880ED000A1FED720AAE4880EDFC
:10112000000A1FED740AAD4880ED000A1FED770A32
:10113000AB4880ED000A1FED790AAA4880ED000A4D
:101140001FED7C0A954880ED000A1FED7E0A944849
:1011500080ED000A1FED810A924880ED000A1FED24
:10116000830A914880ED000AFFF718F806F02DFA7F
:10117000FFF738FC05F0A1FA01208C4908708C4972
:10118000087016E68B480078092862D1FFF732FD17
:1011900000285ED00A20874908701FED920A864811
:1011A00080ED000A1FED950A844880ED000A1FEDCE
:1011B000970A834880ED000A1FED9A0A814880ED66
:1011C000000A1FED9C0A804880ED000A1FED9F0A6F
:1011D0007E4880ED000A1FEDA10A7D4880ED000ADF
:1011E0001FEDA40A7B4880ED000A1FEDA60A7A488D
:1011F00080ED000A1FEDA90A784880ED000A1FED76
:10120000AB0A774880ED000A1FEDAE0A754880ED05
:10121000000A1FEDB00A614880ED000A1FEDB30A15
:101220005F4880ED000A1FEDB50A5E4880ED000AB8
:101230001FEDB80A5C4880ED000AFEF7AFFF06F02C
:10124000C4F9FFF7CFFB05F038FA012066490870B2
:10125000AFE5584800780A2869D1FFF7CBFC002891
:1012600065D00B20534908701FEDC60A524880ED27
:10127000000A1FEDC80A514880ED000A1FEDCB0A95
:101280004F4880ED000A1FEDCD0A4E4880ED000A60
:101290001FEDD00A4C4880ED000A1FEDD20A4B48E2
:1012A00080ED000A1FEDD50A494880ED000A1FEDC8
:1012B000D70A484880ED000A1FEDDA0A464880ED5B
:1012C000000A1FEDDC0A454880ED000A1FEDDF0A29
:1012D000434880ED000A1FEDE10A424880ED000A14
:1012E0001FEDE40A2D4880ED000A1FEDE60A2C48A8
:1012F00080ED000A1FEDE90A2A4880ED000A1FED83
:10130000EB0A294880ED000AFEF748FF06F05DF978
:10131000A02000F0ADFDFFF765FB05F0CEF9012040
:1013200022490870224908703049087041E5214877
:1013300000780C287DD11FEDF90A1F4880ED000AC6
:101340001FEDFC0A1D4880ED000A9FED290A1C488C
:1013500080ED000A9FED260A1A4880ED000A9FEDF5
:10136000240A194880ED000A9FED210A174880EDF4
:10137000000A9FED1F0A164880ED000A9FED1C0A27
:10138000144880ED000A9FED1A0A134880ED000A08
:101390009FED170A114880ED000A2BE09C00002009
:1013A000A0000020A4000020A800002023000020AE
:1013B0001B000020180000206C000020700000209E
:1013C00074000020780000207C00002080000020B5
:1013D00084000020880000208C0000209000002065
:1013E0009400002098000020220000201C00002013
:1013F000000000001FED020AD14880ED000A1FED39
:10140000040AD04880ED000A1FED070ACE4880ED9F
:10141000000A1FED090ACD4880ED000A1FED0C0AF5
:10142000CB4880ED000A1FED0E0ACA4880ED000A85
:1014300000E004E0FEF7B2FE06F0C7F8B9E400BF32
:10144000B7E410B52DED048B0121C34808F04FFC23
:1014500001287CD1C1480078012813D1C0480088F8
:10146000401CBF490880BF480088401CBD49088017
:10147000BD480088401CBC490880BC480088401C0E
:10148000BA490880BA480088401CB9490880B94860
:10149000007820B1B8480088401CB7490880B74898
:1014A000007820B1B6480088401CB5490880B5488E
:1014B000007820B1B4480088401CB3490880B34884
:1014C000007820B1B2480088401CB1490880B1487A
:1014D000007820B1B0480088401CAF490880A0487F
:1014E0000088012802D100209D4908809D4800887D
:1014F00005284BD100209B490880FFF7DFFBFFF751
:101500003AFB9C48007828B99C48007810B99D485F
:10151000007808B1012000E00020A04908700846CA
:10152000007818BBFFF793FAFFF75CFAFFF726FA8B
:10153000FEF776FF05F0C1F806F047F89848007806
:1015400078B90020974908609749086000E0B8E042
:101550001FED590A954880ED040A1FED5B0A80EDE6
:10156000050A8F48007808B106F0E6F98B48007844
:1015700060B98B48007820B18D48007808B9FEF733
:10158000AEFE8B48007808B1FEF747FE764800882B
:101590000A2802D10020744908807548008819285B
:1015A00004D100207249088005F07DFE6F48008854
:1015B000322802D100206D4908806F480088C82871
:1015C00004D100206C4908806A4908706C48008882
:1015D000B0F5E17F04D100206949088067490870AF
:1015E00069480088B0F52A7F04D100206649088048
:1015F0006449087066480088B0F5166F59D100201C
:1016000063490880614908706A480078F0BB6A48FD
:101610000078D8BB0120684908706848006808F065
:10162000B3FF41EC190B9FED660B53EC102B08F048
:1016300020FF41EC180B08F0D3FF604908606248B6
:10164000006808F0A1FF41EC190B9FED5D0B53EC16
:10165000102B08F00EFF41EC180B08F0C1FF5A499F
:1016600008605A48006808F08FFF41EC190B9FEDA5
:10167000540B53EC102B08F0FCFE41EC180B08F057
:10168000AFFF524908605248006800E011E008F0DE
:101690007BFF41EC190B9FED4A0B53EC102B08F02C
:1016A000E8FE41EC180B08F09BFF4949086005F083
:1016B0008CFF39480088B0F5C87F02D10020364938
:1016C00008800121244808F023FBBDEC048B10BDE9
:1016D0009FED400A404880ED000A9FED400A4048D7
:1016E00080ED000A9FED3F0A3F4880ED000A9FED24
:1016F0003F0A3F4880ED000A9FED3E0A3E4880EDDC
:10170000000A9FED3C0A3D4880ED000A9FED390A32
:101710003B4880ED000A9FED370A3A4880ED000A09
:101720007047002106E0002200E0521CB2F5C87F9D
:10173000FBD3491C322343438B42F4D8704700004B
:1017400094000020980000209C000020A0000020B1
:10175000A4000020A8000020001400401A0000206F
:10176000AC000020AE000020B0000020B40000203B
:10177000B200002021000020B6000020220000203E
:10178000B800002023000020BA0000202400002020
:10179000BC00002025000020BE000020200000200A
:1017A0001B000020240C00402404004044120020B0
:1017B0001C00002018000020270000204C00002002
:1017C000000000000000E83F50000020540000200E
:1017D00058000020000078422C0000200000254323
:1017E0003000002000000E4334000020000084423E
:1017F00038000020000048433C000020400000204A
:10180000440000204800002008B54FF4A06006F016
:101810004DFEA82000F0CAFA02F01EFF06F0DAFD25
:1018200002F0FEFE542144F6206004F069FC05F04D
:10183000AFF803F009FB02F0D0FF02F0EAFF05F079
:101840003DFE54214FF47A7004F02AFC01214FF63A
:10185000FF7005F0C3FF01214FF6FF7006F015F889
:1018600000F026FBFEF79AFC05F0AFFE4FF4E130E6
:1018700003F0A0FB4FF4165003F0C4FD9FED990A4E
:10188000994880ED000A9FED970A984880ED000A7C
:101890009FED940A964880ED000A9FED920A9548C4
:1018A00080ED000A9FED8F0A934880ED000A9FEDBE
:1018B0008D0A924880ED000A9FED8A0A904880EDDB
:1018C000000A9FED880A8F4880ED000A9FED850A87
:1018D0008D4880ED000A9FED830A8C4880ED000A58
:1018E0009FED800A8A4880ED000A9FED7E0A8948B4
:1018F00080ED000AFEF77CFC04F0DFFEF0E002F071
:10190000D2FE0446012C74D1834890ED000A83482E
:1019100080ED000A90ED000ADFED810AB4EEE00AE6
:10192000F1EE10FA0CDD90ED000ADFED7E0AB4EE68
:10193000E00AF1EE10FA03D202207B49087015E0AC
:10194000764890ED000ADFED790AB4EEE00AF1EE98
:1019500010FA0BD290ED000ADFED750AB4EEE00A42
:10196000F1EE10FA02DD03206F490870642000F0E8
:101970007FFA694890ED000A6E4880ED000A90ED0C
:10198000000A6D4880ED000A6A4890ED000A6B4835
:1019900080ED000A674890ED000A694880ED000A72
:1019A000644890ED000A674880ED000A614890EDB8
:1019B000000A654880ED000A5E4890ED000A634821
:1019C00080ED000A5B4890ED000A614880ED000A56
:1019D000584890ED000A5F4880ED000A554890EDA8
:1019E000000A5D4880ED000A01205C4908705C49EE
:1019F0000870022C04D15B480078801C594908709B
:101A0000042C06D1642000F033FAFEF7F1FB04F059
:101A100054FE142000F0E4F90C200223042200906C
:101A20003D4890ED000A00210A2003F08FF80C20B9
:101A3000022300904B4802780021402003F04DF82B
:101A40000C2000904848D0ED030AB0EE600A022353
:101A500005220C21002003F079F80C200090434867
:101A6000D0ED030AB0EE600A022305220C213020DB
:101A700003F06CF80C2000903D48D0ED030AB0EE66
:101A8000600A022305221821002003F05FF80C20D1
:101A900000903848D0ED030AB0EE600A0223052218
:101AA0001821302003F052F80C2000903248D0ED7D
:101AB000030AB0EE600A022305222421002003F06D
:101AC00045F80C2000902D48D0ED030AB0EE600AD6
:101AD000022305222421302003F038F802F05AFEB8
:101AE0000DE70000000000006C00002070000020E6
:101AF00074000020780000208C000020900000205E
:101B000094000020980000209C000020A0000020ED
:101B1000A4000020A8000020AC010020C00100208B
:101B2000000034C3000007C3C40100200000344398
:101B300000000743CC000020A00300205C0300202D
:101B4000E4030020280400206C040020B0040020DE
:101B5000F4040020380500207C0500201A00002035
:101B60002400002018000020480200206802002005
:101B7000C8010020E80100200802002028020020FF
:101B8000704700BFFEE700BFFEE700BFFEE700BFF3
:101B9000FEE7704770477047704700000CB50020A3
:101BA000019000907648006840F4803074490860E5
:101BB00000BF7348006800F4003000900198401C9A
:101BC0000190009818B90198B0F5A04FF1D16C4878
:101BD000006800F4003010B10120009001E0002006
:101BE00000900098012846D165484030006840F0D8
:101BF00080506349403108606248006840F44040CA
:101C0000604908605E48083000685D490831086036
:101C10000846006840F4004008600846006840F448
:101C2000A05008605848091F0860081F006840F06D
:101C30008070091F086000BF5148006800F0007004
:101C40000028F9D040F20570504908604C4808302F
:101C5000006820F003004A4908310860084600681F
:101C600040F00200086000BF45480830006800F0FE
:101C70000C000828F8D10CBD10B54548006840F4A8
:101C80007000434908603E48006840F001003C494C
:101C9000086000203A4908310860394800683D4929
:101CA0000840374908603C48091D0860081F006863
:101CB00020F48020091F0860002031490C310860A1
:101CC000FFF76CFF4FF0006031498039086010BDAC
:101CD00070B500200022022300240221284D08357F
:101CE0002D6805F00C0020B1042806D0082834D156
:101CF00007E02A4D2A4E356033E02A4D284E3560E4
:101D00002FE01F4D2D1D2D68C5F380541C4D2D1D3A
:101D10002D6805F03F0154B1224DB5FBF1F5184E89
:101D2000361D3668C6F3881605FB06F209E01B4D22
:101D3000B5FBF1F5124E361D3668C6F3881605FB65
:101D400006F20F4D2D1D2D68C5F301456D1C6B006E
:101D5000B2FBF3F5124E356003E0104D104E3560C6
:101D600000BF00BF064D08352D68C5F303150E4EA4
:101D7000705D0B4D2D68C540094E356070BD00008B
:101D8000003802400070004008544007003C024008
:101D900088ED00E0FFFFF6FE103000240024F40080
:101DA000D000002000127A00D400002010B50446B4
:101DB0006FF0040006F0CCFBE11704EB5171C1F3A6
:101DC000C701394A11701046007800EB4001C1EBA1
:101DD000C0104FF6FF7101EAC0003449088010BD01
:101DE0000146314A12784A434FF0E0235A610022FB
:101DF0009A611A46126942F001021A6100BF4FF05F
:101E0000E022106900F001021AB100F48032002AC9
:101E1000F5D04FF0E022126922F001024FF0E023EA
:101E20001A6100229A6170470146204A12884A438B
:101E30004FF0E0235A6100229A611A46126942F07B
:101E400001021A6100BF4FF0E022106900F00102A8
:101E50001AB100F48032002AF5D04FF0E022126966
:101E600022F001024FF0E0231A6100229A617047CC
:101E700070B504464FF4077094FBF0F0C6B24FF40F
:101E8000077094FBF0F100FB114085B205E04FF4C0
:101E90000770FFF7C9FF701EC6B2002EF7D115B14B
:101EA0002846FFF7C1FF70BDE4000020E6000020D7
:101EB0009FEDFE0AFE4880ED000A9FEDFE0A80EDD0
:101EC000070A9FEDFA0A80ED080A9FEDF80A80EDF7
:101ED000050A9FEDF60A80ED0F0A9FEDF40A80EDEA
:101EE0000D0A9FEDF50A80ED090AB1EE080A80EDB2
:101EF0000E0AB0EE000AF14880ED000A9FEDED0AEF
:101F000080ED070A9FEDE90A80ED080A9FEDE70AD8
:101F100080ED050A9FEDE50A80ED0F0A9FEDE30ACB
:101F200080ED0D0A9FEDE40A80ED090AB1EE080A82
:101F300080ED0E0A9FEDE20AE24880ED000AB2EE63
:101F4000040A80ED070A9FEDD90A80ED080A9FED8B
:101F5000D70A80ED050A9FEDD50A80ED0F0A9FEDA7
:101F6000D30A80ED0D0A9FEDD10AD74880ED000A13
:101F70009FEDD60A80ED070A9FEDCC0A80ED080A96
:101F80009FEDCA0A80ED050A9FEDC80A80ED0F0A91
:101F90009FEDC60A80ED0D0A9FEDCD0A80ED090A7E
:101FA000B1EE080A80ED0E0A9FEDC00AC94880ED27
:101FB000000A9FEDBE0A80ED070A9FEDBC0A80ED86
:101FC000080A9FEDBA0A80ED050A9FEDB80A80ED78
:101FD0000F0A9FEDC10A80ED0D0A9FEDB40A80ED56
:101FE000090A9FEDBE0A80ED0E0A9FEDB00ABC48BB
:101FF00080ED000A9FEDBB0A80ED070A9FEDAB0A5A
:1020000080ED080A9FEDA90A80ED050A9FEDA70A59
:1020100080ED0F0A9FEDB40A80ED0D0A9FEDB30A23
:1020200080ED090A9FEDB20A80ED0E0A9FED9F0A2E
:10203000B04880ED000A9FEDB00A80ED070A9FEDE1
:102040009B0A80ED080AB0EE000A80ED050AB7EEA3
:10205000000A80ED0F0A9FEDA40A80ED0D0A9FEDA6
:10206000A70A80ED090A9FEDA20A80ED0E0A9FEDF6
:102070008F0AA34880ED000A9FEDA20A80ED070AAF
:102080009FED8A0A80ED080A9FED880A80ED050A17
:102090009FED860A80ED0F0A9FED930A80ED0D0AF1
:1020A0009FED820A80ED090A9FED8B0A80ED0E0AF2
:1020B0009FED7E0A944880ED000AB3EE0C0A80ED95
:1020C000070A9FED7A0A80ED080A9FED780A80EDF5
:1020D000050A9FED760A80ED0F0A9FED830A80EDD9
:1020E0000D0A9FED8A0A80ED090A9FED810A80EDB5
:1020F0000E0A9FED6E0A864880ED000A9FED7E0A6B
:1021000080ED070A9FED690A80ED080AB0EE000A2B
:1021100080ED050AB7EE000A80ED0F0A9FED720A06
:1021200080ED0D0A9FED750A80ED090A9FED700A9A
:1021300080ED0E0A9FED5D0A764880ED000A9FED66
:10214000760A80ED070A9FED590A80ED080A9FED97
:10215000570A80ED050A9FED550A80ED0F0A9FEDA5
:10216000530A80ED0D0A9FED6D0A80ED090AB1EE6C
:10217000080A80ED0E0A9FED4D0A694880ED000ABD
:102180009FED650A80ED070A9FED480A80ED080A79
:102190009FED460A80ED050A9FED440A80ED0F0A87
:1021A0009FED420A80ED0D0A9FED5C0A80ED090A61
:1021B000B1EE080A80ED0E0A9FED5A0A5A4880EDEA
:1021C000000A9FED3D0A80ED070A9FED380A80ED79
:1021D000080A9FED360A80ED050A9FED340A80ED6E
:1021E0000F0A9FED320A80ED0D0A9FED500A80ED37
:1021F000090AB1EE000A80ED0E0A9FED4A0A4C482A
:1022000080ED000A9FED2C0A80ED070A9FED270A5A
:1022100080ED080A9FED250A80ED050A9FED230A4F
:1022200080ED0F0A9FED210A80ED0D0A9FED3F0A18
:1022300080ED090AB1EE000A80ED0E0A9FED3D0A1D
:102240003D4880ED000A9FED3D0A80ED070A9FEDB5
:10225000170A80ED080A9FED150A80ED050A9FED2B
:10226000130A80ED0F0A9FED110A80ED0D0A9FED14
:10227000340A80ED090AB1EE040A80ED0E0A9FEDE2
:10228000310A314880ED000A9FED2C0A80ED070AE3
:102290009FED060A80ED080A9FED040A80ED050A0D
:1022A0009FED020A80ED0F0A50E0000000000000E0
:1022B000880A00209A99993ECDCC4C3E440A0020D1
:1022C00000004842D40200205C0300209A99D93FC4
:1022D0009A99193FA00300200000FA440000FA4335
:1022E000E4030020000050420000164400006C424D
:1022F000000048446C0400200000C84300009643DE
:102300007C05002000007A442804002000001042D0
:10231000B0040020F4040020D578E93F04560E3FB5
:10232000380500200000A042C0050020CDCCCC3DE7
:10233000040600200000C44248060020CDCCCC3E5C
:10234000CDCC4C3F0000C0428C0600201FED290A76
:1023500080ED0D0A1FED060A80ED090AB1EE040AB0
:1023600080ED0E0A9FEDFE0AFE4880ED000A1FED8B
:10237000110A80ED070A9FEDFC0A80ED080A9FED27
:10238000FB0A80ED050A9FEDFA0A80ED0F0AB1EE17
:10239000000A80ED0D0A1FED3B0A80ED090AB1EE3F
:1023A000000A80ED0E0A9FEDEE0AF24880ED000A69
:1023B0001FED1E0A80ED070A1FED440A80ED080A92
:1023C0001FED460A80ED050A1FED480A80ED0F0A51
:1023D0001FED4A0A80ED0D0A1FED270A80ED090A5C
:1023E000B1EE040A80ED0E0A9FEDDD0AE24880EDB1
:1023F000000A1FED2E0A80ED070A1FED540A80ED3A
:10240000080A1FED560A80ED050A1FED580A80EDF7
:102410000F0A1FED5A0A80ED0D0A1FED370A80EDF5
:10242000090AB1EE040A80ED0E0A9FEDD40AD448E1
:1024300080ED000A9FEDD30A80ED070A1FED650AC3
:1024400080ED080AB2EE0E0A80ED050AB7EE000A2A
:1024500080ED0F0A1FED680A80ED0D0A9FEDC90A95
:1024600080ED090AB1EE000A80ED0E0A9FEDC30A65
:10247000C54880ED000A9FEDC30A80ED070A1FEDF5
:10248000750A80ED080AB2EE0E0A80ED050AB7EE75
:10249000000A80ED0F0A1FED780A80ED0D0A9FED0E
:1024A000B90A80ED090AB1EE000A80ED0E0A9FED2F
:1024B000B30AB64880ED000A9FEDB20A80ED070A24
:1024C0001FED860A80ED080AB2EE0E0A80ED050ABD
:1024D0001FED8A0A80ED0F0A1FED890A80ED0D0AB3
:1024E0009FEDAB0A80ED090AB1EE000A80ED0E0AFD
:1024F0009FEDA20AA74880ED000A9FEDA20A80ED99
:10250000070A1FED960A80ED080AB2EE0E0A80ED6A
:10251000050A1FED9A0A80ED0F0A1FED990A80ED5A
:102520000D0A9FED9B0A80ED090AB1EE000A80EDCD
:102530000E0A9FED920A984880ED000A1FED920A5C
:1025400080ED070AB0EE080A80ED080AB2EE040A30
:1025500080ED050AB7EE000A80ED0F0A1FED990A1B
:1025600080ED0D0A1FEDAF0A80ED090A1FED9D0AEF
:1025700080ED0E0A9FED810A884880ED000A1FED6C
:10258000A20A80ED070AB0EE080A80ED080AB2EE52
:10259000040A80ED050AB7EE000A80ED0F0A1FED70
:1025A000A90A80ED0D0A1FEDBF0A80ED090A1FED93
:1025B000AD0A80ED0E0A1FEDA10A794880ED000AF0
:1025C0001FEDB30A80ED070AB0EE080A80ED080A95
:1025D000B2EE040A80ED050AB7EE000A80ED0F0A9C
:1025E0001FEDBD0A80ED0D0A1FEDD00A80ED090A2E
:1025F0001FEDBC0A80ED0E0A1FEDAE0A694880EDA2
:10260000000A1FEDC30A80ED070AB0EE080A80ED4C
:10261000080AB2EE040A80ED050AB7EE000A80ED62
:102620000F0A1FEDCD0A80ED0D0A1FEDE00A80EDC7
:10263000090A1FEDCC0A80ED0E0A9FED5B0A5B488C
:1026400080ED000A1FEDC30A80ED070A1FEDE90ABD
:1026500080ED080A1FEDEB0A80ED050A1FEDED0A7B
:1026600080ED0F0A1FEDEF0A80ED0D0A1FEDF10A54
:1026700080ED090AB2EE040A80ED0E0A9FED4A0AC7
:102680004B4880ED000A1FEDD30A80ED070A1FEDCD
:10269000F90A80ED080A1FEDFB0A80ED050A9FED9F
:1026A000450A80ED0F0A9FED430A80ED0D0A9FED6C
:1026B000410A80ED090AB2EE040A80ED0E0A704765
:1026C000F0EE400AC0ED020A90ED021AD0ED051AB4
:1026D000B4EEE11AF1EE10FA15D290ED021AD0ED37
:1026E000051AF1EE611AB4EEE11AF1EE10FA0ADD04
:1026F00090ED041AD0ED021A90ED0F2A01EE821A25
:1027000080ED041A03E09FED2B1A80ED041A90ED82
:10271000041AD0ED0D1AB4EEE11AF1EE10FA04DD50
:1027200090ED0D1A80ED041A10E090ED041AD0ED32
:102730000D1AF1EE611AB4EEE11AF1EE10FA05D2BB
:1027400090ED0D1AB1EE411A80ED041A90ED021AC7
:10275000D0ED031A31EE611A80ED061A2CE000006C
:102760000000C242D0060020A69BC43A0AD7A33B71
:1027700017B7D1385807002014070020000009437C
:102780009C0700207B142E3EE00700202408002038
:102790000AD7A33D68080020AC080020F0080020FC
:1027A000340900207809002000008C42BC09002078
:1027B000000A00200000000090ED071AD0ED021A78
:1027C00021EE211A80ED0A1A90ED081AD0ED041AB4
:1027D00021EE211A80ED0B1A90ED091AD0ED061AA0
:1027E00021EE211A80ED0C1A90ED0A1AD0ED0B1A89
:1027F00031EE211AD0ED0C1A31EE210A90ED0E1AAD
:10280000B5EEC01AF1EE10FA1AD090ED0E1AB4EE31
:10281000C01AF1EE10FA04D290ED0E1AB0EE410A91
:102820000EE090ED0E1AB1EE411AB4EEC01AF1EEC0
:1028300010FA05DD90ED0E1AB1EE411AB0EE410A24
:1028400090ED021A80ED031A80ED100A704700B572
:10285000F0EE402AFE4890ED000A30EE620A80ED6C
:10286000020AD0ED020AB0EE600AFFF729FFF8482D
:1028700090ED100AF74880ED000AF54890ED100A37
:10288000F54880ED000A00BD00B5F0EE402AF3489F
:1028900090ED000A30EE620A80ED020AD0ED020AE5
:1028A000B0EE600AFFF70CFFEC4890ED100AEC4820
:1028B00080ED000AE94890ED100AEA4880ED000A30
:1028C00000BD00B5F0EE402AE74890ED000A30EE7A
:1028D000620A80ED020AD0ED020AB0EE600AFFF74C
:1028E000EFFEE14890ED100AB1EE400AD94880EDC4
:1028F000000ADD4890ED100AB1EE400AD64880ED9E
:10290000000A00BD00B5F0EE402AD84890ED000A5C
:1029100030EE620A80ED020AD0ED020AB0EE600AE3
:10292000FFF7CEFED14890ED100AB1EE400ACC4838
:1029300080ED000ACD4890ED100AB1EE400AC9487A
:1029400080ED000A00BD00B5F0EE402AC64890EDCB
:10295000000AF3EE070A30EE600A30EE620A80EDFC
:10296000020AD0ED020AB0EE600AFFF7A9FEBE48E7
:1029700090ED100AB1EE400AB64880ED000ABA4860
:1029800090ED100AB1EE400AB34880ED000A00BD98
:1029900000B5F0EE402AB54890ED000AF3EE070AC4
:1029A00030EE600A30EE620A80ED020AD0ED020AD3
:1029B000B0EE600AFFF784FEAC4890ED100AB1EE6D
:1029C000400AA74880ED000AA84890ED100AB1EE31
:1029D000400AA44880ED000A00BD00B5F0EE402A90
:1029E000A34890ED000A30EE620A80ED020AD0EDB5
:1029F000020AB0EE600AFFF763FE9D4890ED100AF0
:102A0000944880ED000A9A4890ED100A924880EDB3
:102A1000000A00BD00B5F0EE402A964890ED000A8D
:102A200030EE620A80ED020AD0ED020AB0EE600AD2
:102A3000FFF746FE8F4890ED100A894880ED000AA6
:102A40008C4890ED100A874880ED000A894890ED87
:102A5000100ADFED890A20EE200A884880ED000A7E
:102A6000844890ED100ADFED860A20EE200A8548A2
:102A700080ED000A7F4890ED100A834880ED000A3F
:102A80007C4890ED100A814880ED000A00BD00B539
:102A9000F0EE402A7E4890ED000A30EE620A80EDAA
:102AA000020AD0ED020AB0EE600AFFF709FE78488C
:102AB00090ED100A674880ED000A754890ED100A05
:102AC000654880ED000A724890ED100ADFED6C0A4F
:102AD00020EE200A6F4880ED000A6D4890ED100A44
:102AE000DFED650A20EE200A6B4880ED000A684899
:102AF00090ED100A694880ED000A654890ED100AD3
:102B0000674880ED000A00BD00B5F0EE402A654838
:102B100090ED000A30EE620A80ED020AD0ED020A62
:102B2000B0EE600AFFF7CCFD5E4890ED100AB1EE02
:102B3000400A494880ED000A5A4890ED100AB1EE6B
:102B4000400A484880ED000A00BD00B5F0EE402A7A
:102B5000554890ED000A30EE620A80ED020AD0ED91
:102B6000020AB0EE600AFFF7ABFD4F4890ED100A85
:102B7000B1EE400A374880ED000A4B4890ED100A4C
:102B8000B1EE400A364880ED000A00BD00B5F0EE17
:102B9000402A464890ED000A30EE620A80ED020AB3
:102BA000D0ED020AB0EE600AFFF78AFD3F4890EDD3
:102BB000100A294880ED000A3C4890ED100A294887
:102BC00080ED000A00BD00B5F0EE402A384890EDD7
:102BD000000A30EE620A80ED020AD0ED020AB0EE81
:102BE000600AFFF76DFD324890ED100A194880ED3C
:102BF000000A2F4890ED100A194880ED000A00BD28
:102C000010B52DED068BB0EE408A0446294890EDB4
:102C1000000A30EE480A80ED020AD0ED020AB0EE5A
:102C2000600AFFF74DFD012C03D0052C01D0092CC3
:102C30007ED1204890ED020AB5EEC00AF1EE10FAFE
:102C400077DD90ED100AB1EE400A034834E0000051
:102C5000C00500206C000020700000200406002049
:102C60007400002078000020480600208C06002018
:102C7000D0060020140700200000F0C28C000020C5
:102C80000000F04290000020840000208800002016
:102C90005807002094000020980000207C000020AD
:102CA000800000209C070020E0070020240800206E
:102CB00068080020880A002080ED000AFC4890ED9A
:102CC000100AB1EE400AFB4880ED000AF84890ED8A
:102CD000100A10EE101A084607F056FC41EC1A0BC9
:102CE0009FEDF50B53EC102B07F0C3FB41EC190BD8
:102CF00007F076FCF2490860ED4890ED100A10EEFE
:102D0000101A084607F040FC41EC1A0B9FEDEA0B45
:102D100053EC102B07F0ADFB41EC190B07F060FCF6
:102D2000E8490860E24890ED100ADFEDE70A01E0AB
:102D3000B9E03BE020EE200AE44880ED000ADC48E0
:102D400090ED100A10EE101A084607F01DFC41EC39
:102D50001A0B9FEDDF0B53EC102B07F08AFB41ECB5
:102D6000190B07F03DFCDC490860D14890ED100AD2
:102D700010EE101A084607F007FC41EC1A0B9FED05
:102D8000D40B53EC102B07F074FB41EC190B07F03C
:102D900027FCD2490860C64890ED100ADFEDCA0A48
:102DA00020EE200ACE4880ED000A7EE1C04890ED7A
:102DB000100A10EE101A084607F0E6FB41EC1A0B59
:102DC0009FEDBD0B53EC102B07F053FB41EC190B9F
:102DD00007F006FCBA490860B54890ED100A10EEFD
:102DE000101A084607F0D0FB41EC1A0B9FEDB20B0E
:102DF00053EC102B07F03DFB41EC190B07F0F0FBF7
:102E0000B0490860AA4890ED100AB1EE400AB548F2
:102E100080ED000AA64890ED100AB1EE400AA548E0
:102E200080ED000AA24890ED100ADFEDA70A20EE1F
:102E3000200AA64880ED000A9D4890ED100A10EE89
:102E4000101A084607F0A0FB41EC1A0B9FEDA00BEF
:102E500053EC102B07F00DFB41EC190B07F0C0FBF6
:102E60009D490860924890ED100A10EE101A08462D
:102E700007F08AFB41EC1A0B9FED950B53EC102BDE
:102E800007F0F7FA41EC190B07F0AAFB9349086029
:102E9000874890ED100ADFED8C0A20EE200A90485A
:102EA00080ED000A01E1904890ED020AB5EEC00AFB
:102EB000F1EE10FA7DD27E4890ED100AB1EE400A94
:102EC0007F4880ED000A7A4890ED100AB1EE400A82
:102ED0007C4880ED000A764890ED100A10EE101A3A
:102EE000084607F051FB41EC1A0B9FED730B53ECB6
:102EF000102B07F0BEFA41EC190B07F071FB794972
:102F000008606B4890ED100A10EE101A084607F0A2
:102F10003BFB41EC1A0B9FED680B53EC102B07F0B9
:102F2000A8FA41EC190B07F05BFB624908606048A6
:102F300090ED100A10EE101A084607F025FB41EC40
:102F40001A0B9FED6A0B53EC102B07F092FA41EC31
:102F5000190B07F045FB5D490860554890ED100AD4
:102F6000DFED640A20EE200A5B4880ED000A50483D
:102F700090ED100ADFED5F0A20EE200A574880ED41
:102F8000000A4B4890ED100A10EE101A084607F0A0
:102F9000FBFA41EC1A0B9FED550B53EC102B07F08D
:102FA00068FA41EC190B07F01BFB4D4908607CE007
:102FB000FFE73F4890ED100AB1EE400A404880ED2F
:102FC000000A3B4890ED100AB1EE400A3D4880ED02
:102FD000000A374890ED100A10EE101A084607F064
:102FE000D3FA41EC1A0B9FED340B53EC102B07F086
:102FF00040FA41EC190B07F0F3FA3A4908602C4803
:1030000090ED100A10EE101A084607F0BDFA41ECD8
:103010001A0B9FED290B53EC102B07F02AFA41EC09
:10302000190B07F0DDFA23490860214890ED100ADA
:1030300010EE101A084607F0A7FA41EC1A0B9FEDA4
:103040002B0B53EC102B07F014FA41EC190B07F083
:10305000C7FA1E490860164890ED100ADFED250AF0
:1030600020EE200A1C4880ED000A114890ED100A5D
:10307000DFED200A20EE200A184880ED000A0C48F7
:1030800090ED100A10EE101A084607F07DFA41EC98
:103090001A0B9FED160B53EC102B07F0EAF941ECDD
:1030A000190B07F09DFA0E490860BDEC068B10BDA8
:1030B000880A002078000020666666666666E6BFBD
:1030C0006C000020740000200000C8C28C000020AA
:1030D000000000000080514090000020940000207B
:1030E0009800002070000020440A0020000000002A
:1030F000008051C00000C84210B52DED068BB0EE27
:10310000408A0446FE4890ED000A30EE480A80ED01
:10311000020AD0ED020AB0EE600AFFF7D1FA012CE4
:1031200003D0052C01D0092C7DD1F54890ED020A81
:10313000B5EEC00AF1EE10FA7AD290ED100A10EE58
:10314000101A084607F020FA41EC1A0B9FEDED0B20
:1031500053EC102B07F08DF941EC190B07F040FAF6
:10316000EA490860E64890ED100A10EE101A084689
:1031700007F00AFA41EC1A0B9FEDE20B53EC102B0F
:1031800007F077F941EC190B07F02AFAE0490860DB
:10319000DB4890ED100ADF4880ED000AD84890ED3A
:1031A000100ADD4880ED000AD54890ED100A5FED69
:1031B0002F0A20EE200AD94880ED000AD04890ED71
:1031C000100A10EE101A084607F0DEF941EC1A0B4F
:1031D0001FED3A0B53EC102B07F04BF941EC190B98
:1031E00007F0FEF9CE490860C54890ED100A10EED0
:1031F000101A084607F0C8F941EC1A0B1FED450BF1
:1032000053EC102B07F035F941EC190B07F0E8F9F6
:10321000C4490860BA4890ED100A5FED4A0A20EEF2
:10322000200AC14801E07CE002E080ED000A8BE169
:10323000B34890ED100A10EE101A084607F0A4F9F2
:1032400041EC1A0B9FEDAF0B53EC102B07F011F96B
:1032500041EC190B07F0C4F9AC490860A84890ED9F
:10326000100A10EE101A084607F08EF941EC1A0BFE
:103270009FEDA40B53EC102B07F0FBF841EC190B5E
:1032800007F0AEF9A24908609D4890ED100AA148E8
:1032900080ED000A9A4890ED100A9F4880ED000AE0
:1032A000974890ED100A5FED6D0A20EE200A9B48CA
:1032B00080ED000A924890ED100A10EE101A0846B0
:1032C00007F062F941EC1A0B1FED780B53EC102B51
:1032D00007F0CFF841EC190B07F082F9904908602C
:1032E000874890ED100A10EE101A084607F04CF9C6
:1032F00041EC1A0B1FED830B53EC102B07F0B9F8C0
:1033000041EC190B07F06CF9864908607C4890ED98
:10331000100A5FED880A20EE200A834880ED000A3B
:1033200012E1774890ED020AB5EEC00AF1EE10FA0C
:1033300078DD90ED100A754880ED000A704890ED38
:10334000100A734880ED000A6D4890ED100A10EEE7
:10335000101A084607F018F941EC1A0B9FED690B9B
:1033600053EC102B07F085F841EC190B07F038F9F6
:1033700068490860624890ED100A10EE101A08467D
:1033800007F002F941EC1A0B9FED5E0B53EC102B8A
:1033900007F06FF841EC190B07F022F95E4908605D
:1033A000574890ED100A10EE101A084607F0ECF896
:1033B00041EC1A0B1FEDBA0B53EC102B07F059F828
:1033C00041EC190B07F00CF9544908604C4890ED9A
:1033D000100A5FEDC30A20EE200A514880ED000A72
:1033E000474890ED100A5FEDC80A20EE200A4D48CC
:1033F00080ED000A424890ED100A10EE101A0846BF
:1034000007F0C2F841EC1A0B1FEDCF0B53EC102B59
:1034100007F02FF841EC190B07F0E2F84249086079
:1034200092E0FFE7364890ED100A384880ED000A38
:10343000334890ED100A364880ED000A304890ED90
:10344000100A10EE101A084607F09EF841EC1A0B0D
:103450009FED2C0B53EC102B07F00BF841EC190BE4
:1034600007F0BEF82B490860254890ED100A10EED1
:10347000101A084607F088F841EC1A0B9FED210B53
:1034800053EC102B06F0F5FF41EC190B07F0A8F8F0
:10349000214908601A4890ED100A10EE101A0846EB
:1034A00007F072F841EC1A0B1FEDF70B53EC102BE1
:1034B00006F0DFFF41EC190B07F092F8174908609E
:1034C0000F4890ED100ADFED190A20EE200A14488B
:1034D00080ED000A0A4890ED100ADFED140A20EE94
:1034E000200A104880ED000A054890ED100A10EE01
:1034F000101A084607F048F841EC1A0B18E00000D3
:10350000440A0020666666666666E63F6C00002038
:103510007400002070000020780000208C00002043
:103520009000002094000020980000200000C8C2F5
:103530009FEDFE0B53EC102B06F09BFF41EC190B9B
:1035400007F04EF8FB490860BDEC068B10BD00B5D6
:10355000F0EE402AF84890ED000A30EE620A80ED65
:10356000020AD0ED020AB0EE600AFFF7A9F8F248AD
:1035700090ED100AF14880ED000AEF4890ED100A36
:10358000B1EE400AEE4880ED000AEB4890ED100ADB
:10359000B1EE400AEB4880ED000AE74890ED100AD2
:1035A000E44880ED000A00BD00B5F0EE402AE64890
:1035B00090ED000A30EE620A80ED020AD0ED020AB8
:1035C000B0EE600AFFF77CF8DF4890ED100AB1EE2C
:1035D000400ADA4880ED000ADB4890ED100AD8482E
:1035E00080ED000AD84890ED100AD64880ED000A18
:1035F000D54890ED100AB1EE400ACE4880ED000AA1
:1036000000BD00B5F0EE402AD04890ED000A30EE43
:10361000620A80ED020AD0ED020AB0EE600AFFF7FE
:103620004FF8CA4890ED100AB1EE400AC34880ED49
:10363000000AC64890ED100AC14880ED000AC34850
:1036400090ED100ABF4880ED000AC04890ED100AC6
:10365000B1EE400AB74880ED000A00BD00B5F0EEBB
:10366000402ABB4890ED000A30EE620A80ED020A63
:10367000D0ED020AB0EE600AFFF722F8B44890EDF0
:10368000100AB1EE400AAD4880ED000AB04890ED56
:10369000100AAB4880ED000AAD4890ED100AA94829
:1036A00080ED000AAA4890ED100AB1EE400AA14848
:1036B00080ED000A00BD00B5F0EE402AB0EE603AA1
:1036C000A44890ED000A30EE620A80ED020AD0EDC7
:1036D000020AB0EE600AFEF7F3FF9E4890ED100A72
:1036E000B1EE400A9C4880ED000A9A4890ED100A1D
:1036F000B1EE400A994880ED000A964890ED000A24
:1037000030EE430A80ED020AD0ED020AB0EE600A04
:10371000FEF7D6FF8F4890ED100AB1EE400A9048B0
:1037200080ED000A8B4890ED100AB1EE400A8D48FA
:1037300080ED000A00BD00B5F0EE402AB0EE603A20
:10374000894890ED000A30EE620A80ED020AD0ED61
:10375000020AB0EE600AFEF7B3FF834890ED100A4C
:103760007D4880ED000A804890ED100A7B4880ED8E
:10377000000A7D4890ED000A30EE430A80ED020A0F
:10378000D0ED020AB0EE600AFEF79AFF764890ED9F
:10379000100A734880ED000A734890ED100A7148D2
:1037A00080ED000A00BD00B5F0EE402A6F4890EDB4
:1037B000000A32EEC00A80ED020AD0ED020AB0EE35
:1037C000600AFEF77DFF694890ED100A624880EDBF
:1037D000000A664890ED100A604880ED000A9FEDEF
:1037E000640A5F4880ED000A9FED610A5D4880ED44
:1037F000000A00BD00B5F0EE402A5C4890ED000ADA
:1038000030EE620A80ED020AD0ED020AB0EE600AE4
:10381000FEF756FF554890ED100A4F4880ED000A1C
:10382000524890ED100A4D4880ED000A4F4890ED47
:10383000100A4B4880ED000A4C4890ED100A4948A8
:1038400080ED000A494890ED100A4A4880ED000AD0
:10385000464890ED100A484880ED000A434890ED34
:10386000100A464880ED000A404890ED100A44488E
:1038700080ED000A00BD00B5F0EE402A414890ED11
:10388000000A30EE620A80ED020AD0ED020AB0EEC4
:10389000600AFEF715FF3B4890ED100AB1EE400AB2
:1038A000264880ED000A374890ED100A244880ED44
:1038B000000A344890ED100A224880ED000A314891
:1038C00090ED100AB1EE400A1A4880ED000A00BDE2
:1038D00000B5F0EE402A2C4890ED000A32EEC00A06
:1038E00080ED020AD0ED020AB0EE600AFEF7E8FEB3
:1038F000254890ED100AF9EE040A20EE200A23482C
:1039000080ED000A204890ED100AF1EE040A20EE46
:10391000200A1F4880ED000A1B4890ED100AF1EEC6
:10392000040A20EE200A1B4836E0000000000000D8
:103930000080514098000020AC0800208C0000203E
:103940009000002094000020F0080020340900209E
:1039500078090020BC0900206C00002070000020C5
:103960007400002078000020000A00205C03002082
:10397000000000007C000020800000208400002067
:1039800088000020A0030020E40300209C00002009
:10399000A0000020A400002080ED000AFE4890ED69
:1039A000100AF9EE040A20EE200AFC4880ED000A15
:1039B00000BD00B5F0EE402AF94890ED000A32EE65
:1039C000C00A80ED020AD0ED020AB0EE600AFEF7EE
:1039D00077FEF34890ED100AF9EE040A20EE200A73
:1039E000F04880ED000AEE4890ED100AF1EE040A6E
:1039F00020EE200AEC4880ED000AE94890ED100A1C
:103A0000F1EE040A20EE200AE84880ED000AE448BE
:103A100090ED100AF9EE040A20EE200ADF4880ED4E
:103A2000000A00BD10B52DED068BB0EE408ADA48D5
:103A300090ED000A38EE400ADD4880ED020AD0ED34
:103A4000020AB0EE600AFEF73BFED94890ED100A7C
:103A500010EE101A084606F097FD41EC1A0B9FED88
:103A6000D50B53EC102B06F004FD41EC190B06F0BE
:103A7000B7FDCC490860CE4890ED100A10EE101A40
:103A8000084606F081FD41EC1A0B9FEDCC0B53EC80
:103A9000102B06F0EEFC41EC190B06F0A1FDC2491B
:103AA0000860C34890ED100A10EE101A084606F0A0
:103AB0006BFD41EC1A0B9FEDC10B53EC102B06F084
:103AC000D8FC41EC190B06F08BFDB8490860B848EA
:103AD00090ED100A10EE101A084606F055FD41EC64
:103AE0001A0B9FEDB40B53EC102B06F0C2FC41EC0B
:103AF000190B06F075FDA9490860BDEC068B10BDD9
:103B000010B52DED068BB0EE408AAE4890ED000A60
:103B100030EE480A80ED020AD0ED020AB0EE600AEB
:103B2000FEF7CEFDA74890ED100A10EE101A0846D9
:103B300006F02AFD41EC1A0B9FEDA30B53EC102B62
:103B400006F097FC41EC190B06F04AFD9549086018
:103B50009C4890ED100A10EE101A084606F014FD6D
:103B600041EC1A0B9FED9A0B53EC102B06F081FCE5
:103B700041EC190B06F034FD8B490860914890ED3B
:103B8000100A10EE101A084606F0FEFC41EC1A0B63
:103B90009FED8A0B53EC102B06F06BFC41EC190BDC
:103BA00006F01EFD81490860864890ED100A10EE6F
:103BB000101A084606F0E8FC41EC1A0B9FED7D0B4D
:103BC00053EC102B06F055FC41EC190B06F008FDE8
:103BD00072490860BDEC068B10BD00B5F0EE402ABE
:103BE0006D4890ED000A32EEC00A7B4880ED020A73
:103BF000D0ED020AB0EE600AFEF762FD764890ED65
:103C0000100A764880ED000A734890ED100A744857
:103C100080ED000A704890ED100A724880ED000AAD
:103C20006D4890ED100A704880ED000A00BD00B5A7
:103C3000F0EE402A584890ED000A32EEC00A6B4878
:103C400080ED020AD0ED020AB0EE600AFEF738FD00
:103C5000664890ED100A634880ED000A634890EDD5
:103C6000100A614880ED000A00BD00B5F0EE402A60
:103C7000494890ED000A32EEC00A5D4880ED020A24
:103C8000D0ED020AB0EE600AFEF71AFD584890ED3A
:103C9000100AB1EE400A574880ED000A544890EDF2
:103CA000100A554880ED000A514890ED100A53481B
:103CB00080ED000A4E4890ED100AB1EE400A5048DF
:103CC00080ED000A00BD10B52DED068BB0EE408AE8
:103CD00004464C4890ED000A30EE480A80ED020A96
:103CE000D0ED020AB0EE600AFEF7EAFC012C03D028
:103CF000052C01D0092C4DD1424890ED020AB5EEB9
:103D0000C00AF1EE10FA46DD90ED100AB1EE400A5D
:103D1000334880ED000A3B4890ED100AB1EE400AAE
:103D2000314880ED000A374890ED100A10EE101A65
:103D3000084606F029FC41EC1A0B9FED330B53ECBF
:103D4000102B06F096FB41EC190B06F049FC2349B9
:103D500008602C4890ED100A10EE101A084606F084
:103D600013FC41EC1A0B9FED280B53EC102B06F0C3
:103D700080FB41EC190B06F033FC1A49086021481E
:103D800090ED100ADFED220A20EE200A194880ED9E
:103D9000000A3FE0F2E074E0E4030020A800002005
:103DA000280400209C000020A0000020A400002087
:103DB0006C040020333333333333E3BF33333333D3
:103DC0003333E33FB00400201F85EB51B81EE5BF3D
:103DD0001F85EB51B81EE53FF40400206C00002065
:103DE00070000020740000207800002038050020BA
:103DF0007C0500208C000020900000209400002012
:103E000098000020880A0020CDCCCCCCCCCCECBFD4
:103E10000000C842FE4890ED100A10EE101A084645
:103E200006F0B2FB41EC1A0B9FEDFA0B53EC102B92
:103E300006F01FFB41EC190B06F0D2FBF7490860B6
:103E4000F34890ED100A10EE101A084606F09CFB9D
:103E500041EC1A0B9FEDEF0B53EC102B06F009FB16
:103E600041EC190B06F0BCFBED490860E84890ED09
:103E7000100A5FED190A20EE200AEA4880ED000AD8
:103E80007DE1E34890ED100A10EE101A084606F0A6
:103E90007BFB41EC1A0B1FED240B53EC102B06F0AF
:103EA000E8FA41EC190B06F09BFBDF490860D848A3
:103EB00090ED100A10EE101A084606F065FB41EC72
:103EC0001A0B1FED2F0B53EC102B06F0D2FA41EC1E
:103ED000190B06F085FBD5490860CD4890ED100A16
:103EE000B1EE400AD24880ED000AC94890ED100AB0
:103EF000B1EE400ACF4880ED000AC54890ED100AA7
:103F00005FED3D0A20EE200ACB4880ED000AC04854
:103F100090ED100A10EE101A084606F035FB41EC41
:103F20001A0B9FEDBC0B53EC102B06F0A2FA41ECE0
:103F3000190B06F055FBB9490860B54890ED100A19
:103F400010EE101A084606F01FFB41EC1A0B9FED0D
:103F5000B10B53EC102B06F08CFA41EC190B06F068
:103F60003FFBAF490860AA4890ED100A5FED580A80
:103F700020EE200AAB4880ED000A00E1A44890ED55
:103F8000020AB5EEC00AF1EE10FA7CD290ED100AEA
:103F9000B1EE400AA44880ED000A9D4890ED100A59
:103FA000B1EE400AA14880ED000A994890ED100A50
:103FB00010EE101A084606F0E7FA41EC1A0B1FED56
:103FC0006E0B53EC102B06F054FA41EC190B06F073
:103FD00007FB974908608E4890ED100A10EE101A02
:103FE000084606F0D1FA41EC1A0B1FED790B53ECA1
:103FF000102B06F03EFA41EC190B06F0F1FA8D4950
:104000000860834890ED100A10EE101A084606F07A
:10401000BBFA41EC1A0B9FED890B53EC102B06F009
:1040200028FA41EC190B06F0DBFA8349086078485E
:1040300090ED100ADFED830A20EE200A774880ED2C
:10404000000A734890ED100ADFED7E0A20EE200A88
:10405000734880ED000A6E4890ED100A10EE101AB9
:10406000084606F091FA41EC1A0B9FED740B53ECE5
:10407000102B06F0FEF941EC190B06F0B1FA694974
:1040800008607CE0FFE7624890ED100AB1EE400A5C
:10409000654880ED000A5E4890ED100AB1EE400AD6
:1040A000624880ED000A5A4890ED100A10EE101A8E
:1040B000084606F069FA41EC1A0B1FEDAD0B53EC04
:1040C000102B06F0D6F941EC190B06F089FA584985
:1040D00008604F4890ED100A10EE101A084606F0DE
:1040E00053FA41EC1A0B1FEDB80B53EC102B06F0F2
:1040F000C0F941EC190B06F073FA4E4908604448C8
:1041000090ED100A10EE101A084606F03DFA41EC48
:104110001A0B9FED4A0B53EC102B06F0AAF941EC59
:10412000190B06F05DFA44490860394890ED100A11
:10413000DFED440A20EE200A384880ED000A3448BA
:1041400090ED100ADFED3F0A20EE200A344880EDA2
:10415000000A2F4890ED100A10EE101A084606F0DB
:1041600013FA41EC1A0B9FED350B53EC102B06F0B4
:1041700080F941EC190B06F033FA2A490860BDECCE
:10418000068B10BD10B52DED068BB0EE408A0446AF
:104190002D4890ED000A30EE480A80ED020AD0ED7D
:1041A000020AB0EE600AFEF78BFA012C03D0052C50
:1041B00001D0092C7DD1244890ED020AB5EEC00A49
:1041C000F1EE10FA76D290ED100A10EE101A0846B1
:1041D00006F0DAF941EC1A0B9FED1C0B53EC102B97
:1041E00006F047F941EC190B06F0FAF90E490860A0
:1041F000154890ED100A10EE101A084606F0C4F9A2
:1042000041EC1A0B9FED110B53EC102B22E0000038
:10421000880A002000000000008056C090000020A6
:1042200094000020980000206C0000207400002002
:1042300070000020780000208C00002000000000AA
:10424000008056400000C8C2440A0020CDCCCCCC2F
:10425000CCCCEC3F06F00DF941EC190B06F0C0F99F
:10426000E3490860E34890ED100AE34880ED000A56
:10427000E04890ED100AE14880ED000ADD4890ED3D
:10428000100A5FED100A20EE200ADD4880ED000ADA
:10429000D84890ED100A10EE101A084606F074F98E
:1042A00041EC1A0B1FED1B0B53EC102B06F0E1F841
:1042B00001E0A0E026E041EC190B06F091F9D149AC
:1042C0000860CC4890ED100A10EE101A084606F06F
:1042D0005BF941EC1A0B1FED270B53EC102B06F08A
:1042E000C8F841EC190B06F07BF9C7490860C148D2
:1042F00090ED100A5FED2D0A20EE200AC34880EDF4
:10430000000A71E1BB4890ED100A10EE101A084641
:1043100006F03AF941EC1A0B1FED340B53EC102B5D
:1043200006F0A7F841EC190B06F05AF9B8490860F5
:10433000B04890ED100A10EE101A084606F024F965
:1043400041EC1A0B1FED3F0B53EC102B06F091F8CC
:1043500041EC190B06F044F9A5490860A54890ED19
:10436000100AA54880ED000AA24890ED100AA34863
:1043700080ED000A9F4890ED100A5FED4E0A20EE96
:10438000200A9F4880ED000A9A4890ED100A10EE2E
:10439000101A084606F0F8F841EC1A0B1FED590BFD
:1043A00053EC102B06F065F841EC190B06F018F9E8
:1043B000944908608F4890ED100A10EE101A0846D4
:1043C00006F0E2F841EC1A0B1FED640B53EC102BD6
:1043D00006F04FF841EC190B06F002F98A49086023
:1043E000844890ED100A5FED690A20EE200A8748A4
:1043F00080ED000AF8E07F4890ED020AB5EEC00AB1
:10440000F1EE10FA78DD90ED100A814880ED000A97
:10441000784890ED100A764880ED000A754890EDD6
:10442000100A10EE101A084606F0AEF841EC1A0B0E
:104430001FED7A0B53EC102B06F01BF841EC190B17
:1044400006F0CEF86C4908606A4890ED100A10EE4C
:10445000101A084606F098F841EC1A0B1FED850B70
:1044600053EC102B06F005F841EC190B06F0B8F8E8
:10447000624908605F4890ED100A10EE101A084675
:1044800006F082F841EC1A0B9FED620B53EC102BF7
:1044900005F0EFFF41EC190B06F0A2F8584908604F
:1044A000544890ED100ADFED5D0A20EE200A5548D1
:1044B00080ED000A4F4890ED100ADFED580A20EE1B
:1044C000200A514880ED000A4A4890ED100A10EE8B
:1044D000101A084606F058F841EC1A0B9FED4D0BE8
:1044E00053EC102B05F0C5FF41EC190B06F078F8E2
:1044F0004649086078E0FFE73E4890ED100A4448DE
:1045000080ED000A3B4890ED100A394880ED000A22
:10451000384890ED100A10EE101A084606F034F8EC
:1045200041EC1A0B1FEDB70B53EC102B05F0A1FF5C
:1045300041EC190B06F054F82F4908602D4890ED16
:10454000100A10EE101A084606F01EF841EC1A0B7D
:104550001FEDC20B53EC102B05F08BFF41EC190B38
:1045600006F03EF825490860224890ED100A10EE4A
:10457000101A084606F008F841EC1A0B9FED250BBF
:1045800053EC102B05F075FF41EC190B06F028F8E1
:104590001B490860174890ED100ADFED200A20EE55
:1045A000200A184880ED000A124890ED100ADFED4D
:1045B0001B0A20EE200A144880ED000A0D4890EDF9
:1045C000100A10EE101A084605F0DEFF41EC1A0B37
:1045D0009FED100B53EC102B05F04BFF41EC190B2A
:1045E00005F0FEFF09490860BDEC068B10BD000018
:1045F00074000020440A0020700000207800002091
:104600008C000020900000209400002098000020E2
:104610006C00002000000000000052C00000A0421A
:104620001CB50121042004F0A9FC42F230000090E6
:1046300001208DF8040000208DF8060001208DF87F
:10464000070003208DF805006946024804F0F8F9D8
:104650001CBD0000000802401CB50121102004F020
:104660008DFC0120009000208DF8040001208DF8C1
:10467000070003208DF8050069462E4804F0E0F994
:104680000220009069462B4804F0DAF904200090DB
:104690006946284804F0D4F9082000906946254866
:1046A00004F0CEF91CBD10B52348007858B3234858
:1046B000006858B12148001D006838B11F48083013
:1046C000006818B11D480C300068E0B90A20FDF7F9
:1046D000CFFB0020184908701848006808B901206D
:1046E00010BD1648001D006808B90220F8E71348FD
:1046F0000830006808B90320F2E710480C30006861
:10470000B0B90420ECE70D480068012810D10B482F
:10471000001D006801280BD10848083000680128F6
:1047200006D106480C300068012801D10249087002
:104730000020D5E700100240E800002000024242BD
:1047400010B5FA4B19600023F94CC4F8B0320022BE
:1047500016E00023F54C0834236000F080031BB101
:104760000123241F236003E00023F04C241D236059
:104770000123EE4C083423604306180E531CDAB2B2
:10478000082AE6DB0123E94C241F2360E84CC4F827
:10479000B43210BD30B500241CE004F1B001C8B241
:1047A0000021FFF7CDFF00210846FFF7C9FF0021D8
:1047B0001020FFF7C5FF002508E0DE4901EBC50129
:1047C000085D0121FFF7BCFF681CC5B2802DF4DB3A
:1047D000601CC4B2082CE0DB30BD00B500218D2088
:1047E000FFF7AEFF00211420FFF7AAFF0021AF2042
:1047F000FFF7A6FF00BD00B500218D20FFF7A0FF49
:1048000000211020FFF79CFF0021AE20FFF798FF4A
:1048100000BD00200CE0002106E00022C54B03EBA8
:10482000C1031A544A1CD1B28029F6DB421CD0B213
:104830000828F0DB7047F0B5144600267F2801DC1D
:104840003F2900DDF0BD0B46CF1701EB5777FF1076
:10485000C7F10707FAB2CF1701EB5777FF10A1EBAB
:10486000C707FDB2C5F107070123BB40DEB24CB15B
:10487000B04B03EBC0039B5C3343AE4F07EBC00769
:10488000BB5408E0AB4B03EBC0039B5CB343A94FA5
:1048900007EBC007BB5400BFD4E72DE9F04706463D
:1048A0000F4690469946DDF820A034460CE03D4680
:1048B00006E0524629462046FFF7BDFF681CC5B2F8
:1048C0004D45F6DD601CC4B24445F0DDFFF762FFE4
:1048D000BDE8F0872DE9F84F80460F4616461C4686
:1048E000BA462046E31704EB5373DB1021464FEA28
:1048F000E47C04EB5C7C4FEAEC0CA4EBCC0CBCF14C
:10490000000F02D04FF0010C01E04FF0000C6344A7
:10491000224604EBD27C4FEA6C0C03FB0CF303F051
:10492000FF0BA6F12000C6B200254EE00C2C07D1EB
:1049300006EB4600804901EB8000405D009013E0EB
:10494000102C05D17D4800EB0610405D00900BE077
:10495000182C07D106EBC600794901EB8000405DB9
:10496000009001E0BDE8F88F4FF0000927E00098C3
:1049700000F0800028B1394640460A9AFFF75BFFF5
:1049800009E00A9808B9012000E0002002463946F3
:104990004046FFF750FF00984006000E0090781C3C
:1049A000C7B2A7EB0A00A04205D1574608F10100A3
:1049B00000F0FF0806E009F1010000F0FF09B9F17D
:1049C000080FD4DB00BF681CC5B25D45AEDB00BF7D
:1049D000C8E710B50246012000E050430B00A1F1EA
:1049E0000104E1B2F9D110BD2DE9FF4F81B00746B6
:1049F00091461E460E9D4FF0000A002439E0301B00
:104A0000401EC1B20A20FFF7E4FFB9FBF0F00A2113
:104A1000B0FBF1F201FB1208BAF1000F16D1701EC3
:104A2000A04213DDB8F1000F0ED10120AB4605EB1B
:104A3000DB71491001FB04710090C8B22B462022A3
:104A40000299FFF747FF12E04FF0010A0120AB4641
:104A500005EBDB71491001FB04710090C8B208F14D
:104A60003001CAB22B460299FFF734FF00BF601C29
:104A7000C4B2B442C3DB05B0BDE8F08FF8B506465A
:104A80000F4615461C4621E004EBD4714910C1F1D4
:104A90008001B14202DA00263819C7B2C4F14000E1
:104AA000B84204DA002006460746FFF7B2FE0120AE
:104AB00000902A78234639463046FFF70BFF204600
:104AC00004EBD07106EB6101CEB26D1C28787E2814
:104AD00002DC28782028D7DAF8BD2DE9F841044611
:104AE0000F4615469846079E002D0EDA334615A24E
:104AF00039462046FFF7C2FF611DC8B243466A42ED
:104B000039460096FFF770FF0DE033460EA2394696
:104B10002046FFF7B3FF611DC8B243462A46394617
:104B20000096FFF761FFBDE8F8810000B4824042C3
:104B300000804042CC0A0020F8A800086CAD0008B4
:104B40005CB300082D000000200000002DE9FF4F9D
:104B50002DED020B82B0804617461E46119C4FF089
:104B6000000900200190002508F1070000F0FF096E
:104B7000204604EBD071491001FB0791491CCDB2CE
:104B800004EBD07105EB6101C9B20191B5EEC00A29
:104B9000F1EE10FA0FD22346AFF2580240460599C3
:104BA000FFF76CFFF1EE400A9FEDFD1A60EE810AFF
:104BB000B0EE600A0CE02346AFF27402404605995D
:104BC000FFF75CFFDFEDF60A60EE200AB0EE600A48
:104BD000DFEDF30A80EE201AFCEEC10A10EE90AA77
:104BE0003B465246009448460599FFF7FDFE234692
:104BF000ECA228460599FFF741FF012E04D0022EB2
:104C000016D0032E13D15CE0FDEEC00A10EE900A20
:104C1000642190FBF1F00A2190FBF1F201FB120AF2
:104C200033465246009405990198FFF7DDFEC9E02E
:104C3000FDEEC00A10EE900A0A2190FBF1F064210B
:104C400090FBF1F201FB12000A2826DAA24604EBDF
:104C5000DA7105EB6101C8B20123002200940599C5
:104C6000FFF7C2FEFDEEC00A10EE900A0A2190FB8B
:104C7000F1F0642190FBF1F201FB120B04EBDA710D
:104C80004910022202FB0151C8B2711ECBB25A4632
:104C900000940599FFF7A8FE12E0FDEEC00A10EEA1
:104CA000900A0A2190FBF1F0642190FBF1F201FBE4
:104CB000120A33465246009405990198FFF794FE74
:104CC00080E0FDEEC00A10EE900A4FF47A7190FB7E
:104CD000F1F201FB12000A2831DAA24604EBDA7184
:104CE00005EB6101C8B20123002200940599FFF78A
:104CF0007BFE04EBDA714910022202FB0151C8B2BB
:104D00000123002200940599FFF76EFEFDEEC00A14
:104D100010EE900A4FF47A7190FBF1F201FB120B46
:104D200004EBDA714910032202FB0151C8B2B11E33
:104D3000CBB25A4600940599FFF756FE41E0FDEECE
:104D4000C00A10EE900A4FF47A7190FBF1F201FB69
:104D50001200642824DAA24604EBDA7105EB610143
:104D6000C8B20123002200940599FFF73DFEFDEE35
:104D7000C00A10EE900A4FF47A7190FBF1F201FB39
:104D8000120B04EBDA714910022202FB0151C8B286
:104D9000711ECBB25A4600940599FFF725FE10E02C
:104DA000FDEEC00A10EE900A4FF47A7190FBF1F21A
:104DB00001FB120A33465246009405990198FFF709
:104DC00013FE00BF00BF08B0BDE8F08F2DE9F84F1B
:104DD00006460C461746A24620200090724800EB7B
:104DE000471B00252BE01BF805804FF0000920E051
:104DF00008F0800028B1012221463046FFF71BFD54
:104E000004E0002221463046FFF715FD4FEA4860D6
:104E10004FEA1068601CC4B2A4EB0A00102804D149
:104E20000AF0FF04701CC6B206E009F1010000F0B0
:104E3000FF09B9F1080FDBDB00BF681CC5B20098A1
:104E40008542D0DBBDE8F88F1CB50121022004F0BB
:104E500095F84FF48050009001208DF80400002058
:104E60008DF8060003208DF8050001208DF807005D
:104E700069464E4803F0E4FD4FF400500090694647
:104E80004A4803F0DDFD4FF48040009069464748F2
:104E900003F0D6FD4FF4004000906946434803F00C
:104EA000CFFD4FF48051414803F048FE4FF40051CC
:104EB0003E4803F043FE4FF480413C4803F03EFE81
:104EC0004FF40041394803F039FE012038490860A9
:104ED0000021AE20FFF734FC0021D520FFF730FC85
:104EE0000021F020FFF72CFC0021A820FFF728FC70
:104EF00000213F20FFF724FC0021D320FFF720FCF6
:104F000000210846FFF71CFC00214020FFF718FC99
:104F100000218D20FFF714FC00211420FFF710FC66
:104F200000212020FFF70CFC00210220FFF708FCE5
:104F30000021A120FFF704FC0021C020FFF700FCA6
:104F40000021DA20FFF7FCFB00211220FFF7F8FB1D
:104F500000218120FFF7F4FB0021EF20FFF7F0FB99
:104F60000021D920FFF7ECFB0021F120FFF7E8FB3F
:104F70000021DB20FFF7E4FB00213020FFF7E0FBFE
:104F80000021A420FFF7DCFB0021A620FFF7D8FBBF
:104F90000021AF20FFF7D4FBFFF73BFC1CBD000056
:104FA00000007A442E000000E900002000040240C6
:104FB000B082404210B596B004460121102004F0A2
:104FC00037F80121880503F0D9FF46208DF85400F9
:104FD00001208DF8550000208DF8560001208DF835
:104FE000570015A803F067FAFE4803F0CFFA4FF018
:104FF00000600090FC480190FC4802904020039023
:105000000F200490002005904FF48060069000204F
:105010000790089009904FF400300A9000200B9000
:1050200001200C9000200D900E906946ED4803F091
:105030004FFB01221021EB4803F011FC01228021DB
:10504000E948001F05F0DCF80021E64803F07AFB90
:105050000121880503F092FFE248783803F096FAC0
:105060004FF000600090E0480190E148029000207D
:1050700003900F200490002005904FF4806006906C
:105080000020079008904FF4807009904FF4403052
:105090000A906946D348783803F01AFB0121D148B9
:1050A000783803F04FFB01224021CF48001F05F064
:1050B000A7F80020ADF84000ADF84200ADF844007C
:1050C000ADF848000C20ADF846000F940FA9C64873
:1050D000001F04F060FF25208DF8540002208DF899
:1050E00055008DF8560001208DF8570015A803F0E3
:1050F000E2F901228021BC48001F05F081F801225D
:105100004021B948001F05F07BF8002240F22661DB
:10511000B548001F05F07DF8002240F22551B24845
:10512000001F05F076F8002240F22771AE48001FFC
:1051300005F06FF8012240F22441AB48001F05F052
:1051400068F80121A848001F04F0ADFF01210220EA
:1051500003F014FF07220621A64803F0FCFC0722F7
:105160001146A44803F0F7FC02208DF850000020FF
:105170008DF8520001208DF8530003208DF8510066
:105180004020139013A99B4803F05AFC02208DF88D
:10519000500000208DF853008020139013A99548EB
:1051A00003F04EFC16B010BD70B504460D464FF02E
:1051B00020518C4803F03FFB8A48001D0560894858
:1051C0000C3004608748006840F0010085490860A1
:1051D00070BD10B588498348783803F02CFB002156
:1051E0008048783803F0AEFA0F207E4974390860A1
:1051F00001217C48783803F0A5FA10BD10B540F2C3
:1052000024417948001F05F03FF838B17648001F67
:1052100004F078FF0446FFF7DCFF12E040F226615D
:105220007148001F05F030F858B140F226616E4811
:10523000001F05F064F86B48006820F00100694920
:10524000086010BD10B56D49664803F025FB70B1CC
:105250006A49644803F0EFFA0021624803F072FAE9
:10526000012240F226616048001F04F0D2FF10BD09
:105270007FB50024AA222146641C61484254FF22C3
:105280002146641C4254F1222146641C42541422DB
:105290002146641C42549DF800202146641C42545F
:1052A0009DF801202146641C42549DF804202146AB
:1052B000641C42549DF805202046611CCCB2504924
:1052C0000A549DF808202046611CCCB24C490A546F
:1052D0009DF809202046611CCCB249490A549DF82A
:1052E0000C202046611CCCB245490A549DF80D2083
:1052F0002046611CCCB242490A549DF82020204629
:10530000611CCCB23E490A549DF821202046611C04
:10531000CCB23B490A549DF824202046611CCCB2F3
:1053200037490A549DF825202046611CCCB23449E7
:105330000A549DF828202046611CCCB230490A54FA
:105340009DF829202046611CCCB22D490A549DF8B5
:105350002C202046611CCCB229490A549DF82D20EE
:105360002046611CCCB226490A549DF830202046C4
:10537000611CCCB222490A549DF831202046611CA0
:10538000CCB21F490A549DF834202046611CCCB28F
:105390001B490A549DF835202046611CCCB218499F
:1053A0000A5400250026002007E01549095C29441D
:1053B000CDB27119CEB2411CC8B21149C978091DCC
:1053C0008142F2DC2046611CCCB20D490D542046CE
:1053D000611CCCB20A490E5421460948FFF7E4FE8D
:1053E0007FBD0000B864024004100140DB0E0020C5
:1053F000CC0E00200004024000803D1000800028F8
:10540000EA0E002010B596B004460121480403F0CE
:10541000FEFD0121480503F0B1FD11208DF80000CB
:1054200002208DF8010000208DF8020001208DF887
:105430000300684603F03FF8DC4803F0A7F84FF09C
:1054400000600190DA480290DA480390402004900E
:105450000B200590002006904FF4806007900020FC
:10546000089009900A904FF400300B9000200C90A7
:1054700001200D9000200E900F9001A9CB4803F061
:1054800027F901221021C94803F0E9F901228021FE
:10549000C748001F04F0B4FE0021C44803F052F9CD
:1054A0000121480503F06AFDC048183803F06EF882
:1054B0004FF000600190BE480290BF48039000206A
:1054C00004900B200590002006904FF48060079018
:1054D0000020089009904FF480700A904FF44030FB
:1054E0000B9001A9B148183803F0F2F80121AF4838
:1054F000183803F027F901224021AD48001F04F0BD
:105500007FFE0020ADF84400ADF84600ADF848003D
:10551000ADF84C000C20ADF84A00109410A9A44836
:10552000001F04F038FD26208DF8000000208DF8C3
:10553000010002208DF8020001208DF8030068466A
:1055400002F0B9FF012280219948001F04F058FEA3
:10555000012240219648001F04F052FE002240F232
:1055600026619348001F04F054FE002240F22551AA
:105570008F48001F04F04DFE002240F227718C4836
:10558000001F04F046FE012240F224418848001F1B
:1055900004F03FFE01218648001F04F084FD012134
:1055A000082003F0EBFC07220521844803F0D3FA1E
:1055B00007220621814803F0CEFA02208DF854001C
:1055C00000208DF8560001208DF8570003208DF83B
:1055D00055002020149014A9784803F031FA0220D5
:1055E0008DF8540000208DF857004020149014A925
:1055F000724803F025FA16B010BD70B504460D468A
:105600006F496A4803F017F96848001D056067484C
:10561000A038C0F8AC40D0F8A00040F001006349C9
:10562000A039C1F8A00070BD10B566495F481838B0
:1056300003F001F900215D48183803F083F80B20CE
:105640005A491439086001215848183803F07AF88B
:1056500010BD10B540F224415548001F04F014FE5F
:10566000002876D05248001F04F04CFD04465248F2
:10567000007855285DD150484078532859D14E487C
:10568000C079514908804C488079504908800846C3
:1056900000884D49097840EA012000B24C49088051
:1056A0000846B0F9000000EE100AB8EEC00A9FEDFF
:1056B000491AC0EE010A9FED480A20EE800A4748C9
:1056C00080ED000A90ED000A4548D0ED000A30EE6A
:1056D000600A424880ED000A42480078022812D150
:1056E0003E4890ED000ADFED3C0AB4EEE00AF1EE30
:1056F00010FA08DD90ED000ADFED3B0A30EE600A9B
:1057000080ED000A15E037480078032811D13348AE
:1057100090ED000ADFED350AB4EEE00AF1EE10FA82
:1057200007D290ED000ADFED300A30EE200A80ED5E
:10573000000A2A4890ED000A2D4880ED000A40F248
:1057400024411B48001F04F0DAFDFFF76DFF15E050
:10575000FFE740F226611648001F04F095FD68B18E
:1057600040F226611248001F04F0C9FD0F4800688E
:1057700020F001000D49A039C1F8A00010BD10B5FE
:105780001C490A4803F088F870B11A49074803F029
:1057900052F80021054802F0D5FF012240F22661AF
:1057A0000348001F04F035FD10BD0000A06002405A
:1057B00004440040270F00201C0F0020000C024072
:1057C00000002020408F0020B0010020B201002006
:1057D000B40100200000004700003443B80100205D
:1057E000C0010020C40100200000B443000034C305
:1057F000AC0100200080202010B596B004460121A5
:10580000880403F004FC0121480503F0B7FB0E20D7
:105810008DF8540002208DF855008DF856000120B7
:105820008DF8570015A802F046FEFE4802F0AEFEC5
:105830004FF000600090FC480190FC48029040202E
:1058400003900F200490002005904FF48060069094
:1058500000200790089009904FF400300A90002033
:105860000B9001200C9000200D900E906946ED48A1
:1058700002F02EFF01221021EA4802F0F0FF01227F
:105880008021E948001F04F0BBFC0021E54802F03C
:1058900059FF0121480503F071FBE248303802F05E
:1058A00075FE4FF000600090DF480190E0480290E4
:1058B000002003900F200490002005904FF480609A
:1058C00006900020079008904FF4807009904FF4E4
:1058D00040300A906946D348303802F0F9FE012181
:1058E000D048303802F02EFF01224021CE48001F60
:1058F00004F086FC0020ADF84000ADF84200ADF8A1
:105900004400ADF848000C20ADF846000F940FA9F4
:10591000C548001F04F03FFB27208DF854000020ED
:105920008DF8550002208DF8560001208DF85700A3
:1059300015A802F0C0FD01228021BB48001F04F021
:105940005FFC01224021B848001F04F059FC0022EE
:1059500040F22661B448001F04F05BFC002240F2D4
:105960002551B148001F04F054FC002240F2277179
:10597000AD48001F04F04DFC012240F22441AA482A
:10598000001F04F046FC0121A748001F04F08BFB18
:105990000121082003F0F2FA07220821A54803F0AC
:1059A000DAF807220921A34803F0D5F802208DF880
:1059B000500000208DF8520001208DF85300032084
:1059C0008DF851004FF48070139013A9994803F09B
:1059D00037F802208DF8500000208DF853004FF466
:1059E0000070139013A9934803F02AF816B010BD65
:1059F00070B504460D464FF0C0518A4802F01BFFB7
:105A000088485838C5654466806D40F00100854976
:105A10005839886570BD10B587498248303802F022
:105A20000AFF00217F48303802F08CFE0F207D49AC
:105A30005839C86201217B48303802F083FE10BD1E
:105A400010B540F224417848001F04F01DFC38B125
:105A50007548001F04F056FB0446FFF7DCFF14E016
:105A600040F226617048001F04F00EFC68B140F25D
:105A700026616D48001F04F042FC6A485838806D6A
:105A800020F0010067495839886510BD10B56B4991
:105A9000644802F001FF70B16849624802F0CBFE31
:105AA0000021604802F04EFE012240F226615E486D
:105AB000001F04F0AEFB10BD7FB50024AA222146D2
:105AC000641C5F484254FF222146641C4254F12268
:105AD0002146641C425414222146641C42549DF801
